:400000000010002011000000E9040000E904000010B500F0B1FF00F06FFAC04670B5164C23688022D20213432360182000F008FB2268124B13402360114A124B1A60102234
:40004000114B1A601032114B1A6080221206104B1A60002525600F4A0F4B1A600F4A104B1A601049092000F0A9FA092000F090FA0D4B1D6070BDC04600010B40FFFFFBFFFA
:400080000600008004010B40080202403002024008010B400E00008000000240A001008040000240510800000C020B4010B572B60122304B1A7000240FE02F486200131904
:4000C00059000B00411889881A5AC31858880004104300F003FA0134E4B2012CEDD926490C3126484C3000F0DFF9254A254B1A60EE221202244B1A60EE22244B1A60992388
:400100001B04234A1360234A1360C9210904224A1160224A1360224A13601D22214B1A600132214B1A6021490B781E32934314221343DBB20B701E4A117816230B43DBB264
:4001400013701C4A1C4B1A6007221C4B1A601C4A1C4B1A601C4A1D4B1A601D4A1D4B1A6003221D4B1A601D4A1D4B1A60FFF756FF10BDC0461C700F400017000080180000DB
:4001800033030000040001400C0001401000014000500F4010500F4018500F4020500F4030500F402000004000800F4001700F4000700F40B66DDB00080004400001044056
:4001C000B69DD80008010440B69D2400080204408E1DDB000803044000040440A40D00000804044010B5064C2378002B07D1054B002B02D0044800E000BF0123237010BD33
:400200004801002000000000E0160000084B10B5002B03D00749084800E000BF07480368002B00D110BD064B002BFBD09847F9E7000000004C010020E0160000C800002036
:4002400000000000F0B583B0040016001F006B46DD1DD97100F064FB022301222900200000F07CFC01233A003100200000F0F2FC03B0F0BD00B583B0022301AA1C21282006
:40028000FFF7E0FF02236A461E212820FFF7DAFF002003B000BDC046F0B583B0060000F075FD050000F07AFD040000F07FFD070000F084FD01903000FFF7DCFF002801D089
:4002C00006233370002C04D0002F02D00223337015E0002C05D0019B002B02D0032333700DE0002D04D0002F02D00423337006E0002D04D0019B002B01D00523337003B05B
:40030000F0BDC04670B5040000F048FD050000F04DFD2843C0B2002806D100F08DFE00F083FF0123237015E0012000F063FE012000F06CFE00F0E2FE00F0D8FF012000F063
:400340000DFD012000F016FD012000F03BFE012000F044FE70BDC04670B5040000F01EFD050000F02BFD2843C0B2002806D100F063FE00F059FF0123237015E0012000F0FC
:4003800039FE012000F042FE00F0B8FE00F0AEFF002000F0E3FC002000F0ECFC002000F011FE002000F01AFE70BDC04670B5040000F0ECFC050000F0F9FC2843C0B2002821
:4003C00004D100F039FE012323700DE0002000F011FE012000F01AFE00F090FE012000F0F1FD012000F0FAFD70BDC04670B5040000F0CCFC050000F0D9FC2843C0B20028AD
:4004000004D100F019FE012323700DE0002000F0F1FD012000F0FAFD00F070FE002000F0D1FD002000F0DAFD70BDC04610B50400FFF720FF002804D100F07AFE01232370E6
:4004400001E000F0D7FE10BD00B583B001226B46DA7162B66B46DB79062BFBD86B46DB799B00104AD3589F466B46D81DFFF714FFF0E76B46D81DFFF745FFEBE76B46D81DF9
:40048000FFF76AFFE6E76B46D81DFFF78FFFE1E76B46D81DFFF7AAFFDCE76B46D81DFFF7C5FFD7E7E4160000F0B50025002711E0BB00C658F3B2FF22964308E06A008A18B0
:4004C0001478A419527822700135013BDBB2002BF4D10137092FEBD9F0BDC04610B50A00002101F0F1F810BD10B501F0C1F803680C2B00D1FEE7FEE770B50F4E0F4D13E06D
:4005000029686B68AC68002202E001C901C30432A242FAD1E868002202E0002102C304328242FAD11035013E002EE9D101F0A6F8FFF78AFFFEE7C0460100000080190000CE
:4005400010B500230AE0032B03D89A000C49505800E00C4899000C4A885001332F2BF2D9FFF7A4FD094B1B68002B02D10022074B1A608022D205116801230B43136010BDB7
:4005800000000000E904000000000020C00000201F2318401E3B8340014A13607047C04600E100E01F2318401E3B8340014A13607047C04680E100E001BE704770B504004B
:4005C0000D001F2802D90020FFF7F6FF1034A40080239B059C4664442068256070BDC04670B504000E00032902D90020FFF7E4FF1F2C02D90020FFF7DFFF03252540ED0001
:40060000063500F08FFEA408A400074B9C46644421680323AB4099430B003100A9401943216000F083FE70BD00E400E010B5034B1B7B584300F06CFE10BDC046CC0000209F
:40064000F0B557464E46C0B483B0040000F06AFE0190E71E2D2F74D83F4B1B78DBB29C4208D83E4B1B78DBB29A463D4B1B78DBB2994631E03B4B1B78DBB29C4208D83A4BF1
:400680001B78DBB29A46394B1B78DBB2994623E0374B1B78DBB29C4208D8364B1B78DBB29A46354B1B78DBB2994615E0334B1B78DBB29C4208D8324B1B78DBB29A46314B0A
:4006C0001B78DBB2994607E02F4B1B78DBB29A462E4B1B78DBB299462D4BDE5D2F2E09D92A2C07D919222B4B1A60052000F010FE192503E0274B1D683F231D40B54206D9FF
:40070000234BDA5D234B1A60052000F001FE1F4B9C4664442378DBB21F4A13601F4B52461A601F4B4A461A600520FFF77FFFB5420AD2174BDA5D174B1A60052000F0E8FD55
:4007400002E00020FFF738FF019800F0EFFD03B00CBC91469A46F0BDC0F1FF0FC1F1FF0FC2F1FF0FC3F1FF0FC4F1FF0FC5F1FF0FC6F1FF0FC7F1FF0FC8F1FF0FC9F1FF0F53
:40078000CAF1FF0FCBF1FF0FCCF1FF0FCDF1FF0FF41800002CFF0B4028FF0B401CFF0B4020FF0B40034B1868C0231B02184000D00120704700010B4010B500F0B3FD044A7E
:4007C0001368C02109020B43136000F0AFFD10BD00010B4010B500F0A5FD08490A68084B1A408024E40122430A600A6813408022120213430B6000F099FD10BD00010B4022
:40080000FF3FFFFF70B5050000F08CFD0400FFF7C9FF002803D0FFF7DDFF012100E0002108482840084A1568084B2B40184310601368012901D1FFF7BFFF200000F076FD69
:4008400070BDC0460404040010020B40FBFBFBFF10B5244B1B685B0715D5234B1B685B070ED5224BD969042001401F4C22688A432260DA698243DA611B69002B00D09847BA
:400880000420FFF7BFFF174B1B685B0518D5164B1B685B0510D5154BD9698022D2001140114802688A430260D969114A0A40DA615B69002B00D098478020C000FFF7A2FFF5
:4008C000084B1B685B030CD5074B1B685B0304D5064B9B69002B00D098478020C002FFF791FF10BD10020B40E000002064010020FFFBFFFF10B50A20FFF74AFE10BDC04619
:4009000010B500F01DF810BD10B5044A1368802109060B431360FFF7EDFF10BD0000064010B5064B1B78002B04D1FFF7E9FF0122024B1A70FFF7E8FF10BDC0468401002056
:4009400010B51B4A11680C230B4313600024194B1C60194A194B1A60194B1A4A13601A4A14601A4A14601A4A13601A4B1C600A20FFF718FE03210A20FFF732FE16490A20C9
:40098000FFF71CFE154B1C60154B1C60154B1C60154B1C60154B1C60154B1C601022154B1A70154B1C80154B1C60154B1C6010BD70000640000006407708008060000640C1
:4009C00007010080000306400403064010030640000206400402064035130000C80E0640880E0640480F0640080F0640C80F0640880F06408F010020A0010020A401002082
:400A00009401002010B5144A13685B005B081360002312490B6012490B601248046812492140016011490B6011490B601149124B19601249124B19601249134B1960134927
:400A4000134B19601021134B19701368802109060B43136010BDC04600000640680006406C00064060000640FF5CFFFF880F0640C80F0640F3070000800F0640ED0F00005E
:400A8000C00F0640FF0F0000400F064017030000000F06408F01002070B52B4B1B6820251D402A4C03E00120FFF7C0FD013C00F08DF9002801D1002CF5D1002C43D0002074
:400AC00000F08CF9224A13680F218B431360214A13685B005B081360002D18D0002000F07DF90A20FFF7A2FD012000F077F90A20FFF79CFD154C03E00120FFF797FD013C52
:400B000000F078F9002803D1002CF5D100E00F4C002C08D0002000F061F90A20FFF786FD01220D4B1A600B4A1368802109060B43136007490B680F229343013A13430B601E
:400B4000012000F04BF970BD64000640204E0000100001400000064068000640F0B583B001900C0017001D00002917D02A4B1B78102B08D10A20FFF715FD284B1B68DB07B7
:400B80000ED508260FE0244B1B78602B0AD1244A138808218B431380002604E0042602E0002600E00426002E2FD128221A4B1A7000231C4A13601C4A13601C4B1F601C4B6B
:400BC0001C60EAB21B4B1A70019B5C00FF231C40134A138802218B4313804023164A13601649174A11601421FF31164A1160164A1360EB0704D5FFF74FFF144B1C6004E0BD
:400C0000124B1C600222124B1A600A20FFF7C0FC300003B0F0BDC0468F01002064000640A0010020B0010020940100209801002090010020AC010020800F064017030000A7
:400C4000000F0640080F0640880F06404002064068000640F0B583B001900C0017001D00002917D02F4B1B78102B08D10A20FFF799FC2D4B1B68DB070ED508260FE0294BCF
:400C80001B78602B0AD1294A138808218B431380002604E0042602E0002600E00426002E39D129221F4B1A700022214B1A60214A1760214B1C60EBB220490B70019B5C009B
:400CC000FF231C400120044318490B8883430B801B491C4B19601421FF311B4B19601368072B03D80422194B1A6008E0184A1368802149000B4313600822144B1A60EB0750
:400D000004D5FFF7C9FE134B1C6004E0114B1C600222114B1A600A20FFF73AFC300003B0F0BDC0468F01002064000640A0010020A4010020A80100209C010020AC0100206E
:400D400017030000000F0640080F0640C80F0640600006404002064068000640044A1368DBB201218B430840184310607047C0460002044004490A68D2B202239A434000CD
:400D8000184010430860704700020440024B1868000901231840704704020440024B1868400901231840704704020440024B1868800901231840704704020440024B18689D
:400DC000C00901231840704704020440024B1868400801231840704704040440044A1368DBB201218B430840184310607047C04600040440024B1B68012018407047C046B5
:400E0000040404400047C04610B50C2863D88000404B1B589F464B06591ACB013E4A9446634401225CE04B06591ACB013B4A94466344042254E04B06591ACB01384A9446AE
:400E4000634402224CE04B06591ACB01354A94466344042244E04B06591ACB01324A9446634401223CE04B06591ACB012F4A94466344012234E04B06591ACB012C4A944634
:400E8000634402222CE04B06591ACB01294A94466344022224E04B06591ACB01264A9446634402221CE04B06591ACB01234A94466344042214E04B06591ACB01204A9446A2
:400EC000634401220CE04B06591ACB011D4A94466344042204E00020FFF76EFB02220023012A02D11878C0B200E00020022A03D11978587800020843042A09D11A785878DC
:400F0000000210439A7812041043DB781B06184310BDC04624190000C07F0000C17F0000C57F0000C97F0000D07F0000D17F0000D67F0000D27F0000D47F0000D87F000008
:400F4000DC7F0000E07F000010B500210520FFF75BFFC4B201210520FFF756FFC0B2002C02D0002804D106E0002803D0012002E0032000E0022010BD70B5104B1B68DB062D
:400F800002D400220E4B1A600D4B1B68802B13D1FFF7DAFF04000022094B1A6001000220FFF732FF002807D0012C05D821000220FFF72AFFFFF726FF70BDC04600030B40E8
:400FC000C000002004490A68D2B204239A43800018401043086070470002044004490A68D2B208239A43C00018401043086070470002044004490A68D2B240239A4380011B
:4010000018401043086070470001044004490A687F231A40C301D8B2104308607047C04600010440034A117880235B420B43DBB21370704773000F40024A11787F230B402C
:401040001370704773000F40014B18707047C04603000F40014B18707047C04643000F40014B18707047C04623000F40014B18707047C04683000F40014B1878C0B2704703
:4010800063000F40014B1878C0B2704753000F4010B501E0FFF7F6FFFFF7EEFFC306F9D410BDC04610B513490B783F22934309221343DBB20B70104C227801231343DBB299
:4010C0002370FF20FFF7C0FFFF20FFF7C3FF1920FFF7C6FF0020FFF7C9FF00F023F9227810231343DBB2237000F020F9FFF7D0FF10BDC04673000F4093000F4010B5064B36
:401100001B78002B04D1FFF7CDFF0122024B1A70FFF788FF10BDC0468C010020034A117880235B420B43DBB21370704771000F40024A11787F230B401370704771000F40BC
:40114000014B18707047C04601000F40014B18707047C04641000F40014B18707047C04621000F40014B18707047C04681000F40014B1878C0B2704761000F40014B18787A
:40118000C0B2704751000F4010B501E0FFF7F6FFFFF7EEFFC306F9D410BDC04610B513490B783F22934309221343DBB20B70104C227801231343DBB22370FF20FFF7C0FFC1
:4011C000FF20FFF7C3FF1920FFF7C6FF0020FFF7C9FF00F0A7F8227810231343DBB2237000F0A4F8FFF7D0FF10BDC04671000F4091000F4010B5064B1B78002B04D1FFF711
:40120000CDFF0122024B1A70FFF788FF10BDC0468D010020034A117880235B420B43DBB21370704772000F40024A11787F230B401370704772000F40014B18707047C046B0
:4012400002000F40014B18707047C04642000F40014B18707047C04622000F40014B18707047C04682000F40014B1878C0B2704762000F40014B1878C0B2704752000F403B
:4012800010B501E0FFF7F6FFFFF7EEFFC306F9D410BDC04610B513490B783F22934309221343DBB20B70104C227801231343DBB22370FF20FFF7C0FFFF20FFF7C3FF192079
:4012C000FFF7C6FF0020FFF7C9FF00F02BF8227810231343DBB2237000F028F8FFF7D0FF10BDC04672000F4092000F4010B5064B1B78002B04D1FFF7CDFF0122024B1A7050
:40130000FFF788FF10BDC0468E010020000000000230800804D0C0460138FDD1C046C046C0467047EFF3108072B6704780F310887047C04610B5AD4B1B68002B00D0984717
:40134000AB4B1B68DB0702D50022AA4B1A60AA4B1B789B0628D5A94B1B68DB0507D5A84A1188C0239B000B431380012300E00023A24A1268D20706D5A14A118890239B0054
:401380000B4313800123002B0FD09B4A1278D20701D5012200E002229949088802430A800021954A117000E00023934A1278920600D414E1914A1268D20611D51022914B2B
:4013C0001A608D4B1B78DB0701D5012300E002238B4A11880B4313801022874B1A7004E1854A1278120720D5844A126892070AD50222844B1A60824A118888239B000B43D8
:401400001380012311E07C4A1278D20703D52521794A117009E02421774A11707A4A1268002A02D01439794A1160734A1278520700D4ABE0704A1278D20749D5744A1268DC
:40144000120727D5734A1268734909680F240C40724909686418141B082C09D8002C16D16F4A11686F4B0B401360012308340EE008240CE0694A11686B48006841186B4812
:401480000068C0B20870116801311160013C002CF0D119E05E4A1268520715D55F4A116861480068411861480068C0B208701168013111601168574A1268914203D2042132
:4014C0005B4A116000E001235A495B4A11605DE04A4A1268920726D502224A4B1A6057490B680D321A40096880231B020B4000D001239B18524A1168CB1A13601268514BB5
:401500001A603F4A118884239B000B4313804E4B1A68802149020A431A6019684B4A0A401A60012332E04A4A1268D20612D424E0434A1168344A1268914211D2404A116887
:401540004448006841180978C9B243480160116801311160394A12680F210A40082AE7D1374A1168284A1268914202D14021274A11603A493A4A116008E0354A1268520639
:4015800004D52F4B1A682F4B1A600123002B2CD0234A1168234B0B4013600023314A13601A4A1360304B1B789B070ED5124B1B78DB0701D5092300E00A23114A11880B4367
:4015C000138060220C4B1A700FE0284B1B689B0601D5182200E01022154B1A6005E0064B1B78DB0601D4FFF70DFA10BD880100208C0E0640880E06408F0100200C0F0640B4
:40160000A0010020000F064098010020880F0640CC0F0640A801002008030640A401002060000640FFFEFFFF9C0100204003064068000640ED0F0000C00F06400802064008
:40164000B00100209401002004020640FFFFFEFF8C0F06409001002040020640F3070000800F0640C80F0640AC01002064000640014B18687047C046440100200E4B70B5B4
:4016800000251E000D4CE41AA410A54204D0AB00F35898470135F8E700F060F9084B00251E00084CE41AA410A54204D0AB00F35898470135F8E770BD68190000681900007E
:4016C000681900007019000003008218934202D019700133FAE77047801A0000D6000000000000005404000068040000720400007C04000086040000900400009A04000061
:4017000000300F40000400400F400004810D820D830D8A018F0194049A07A701AE08B004B202B408B501B601BF10C020C105C5D1C602C807C9FFCAFFCBFFCDA0CF04D0187E
:40174000D280D405D804D904DA04DB04DF01E040E2C0E440E540E6C0E8C0EAC0ECC0EEC005100E200F0817801DB01E601F2027082F203F8045204F8957405E405F09778002
:401780008580C040C260C480CA40CE10D020D210D6D0E2030A010F0114041A0727012E08300432023408350136013F104020410545D14602480749FF4AFF4BFF4DA04F04F9
:4017C000501852805405580459045A045B045F01604062C06440654066C068C06AC06CC06EC086018701920893019404A607B001B202B301B408B604BF04C020C105C5D193
:40180000C720C823C9FFCAFFCBFFCDA0CF04D018D280D405D804D904DA04DB04DF01E040E2C0E440E540E6C0E8C0EAC0ECC0EEC00004051009020A100E200F08102017802B
:40184000180419401A901C021D301E601F20220427082F20300238043F8040044520482249014F895002574059415A085E405F097102778082408401C044C26CC484CA40FB
:40188000CC01CE12D024D218D6DB69026D026F01728082808711DA80DCE0E2C0E64009010D01531057205B408340872093209502A501C230D4E0E6908320850207200902D9
:4018C0009F20A502C004C2080101100103000F4027300F401A310F404E320F402D330F400A400F400D410F4002420F4006430F4002600F40030405060708090A0B0C0E0F57
:40190000101112131415161718191B1C1D1E1F2021222325262728292A2B2E2F3031323334350000D60E0000160E0000260E0000360E0000460E0000560E0000660E000073
:40194000860E0000760E0000960E0000A60E0000B60E0000C60E000043000000F8B5C046F8BC08BC9E4670470D02000041050000F8B5C046F8BC08BC9E467047E501000055
:4019800090190000C8000020800000007000000000000000010000000000E02EC05D00001800000000366E01040404000000000000000000000000000000000000000000B1
:4019C0000000000000000000000000005819000000000000000000000000000000000000000000000000000000000000000000000000000000000000000000000000000076
:401A0000000000000000000000000000E4000020000000000000000000000000000000000000000000000000000000000000000000000000000000000000000000000000A2
:401A40000000000000000000000000000000000000000000000000000000000000000000000000000000000000000000000000000000000000000000000000000000000066
:401A80000000000000000000000000000000000000000000000000000000000000000000000000000000000000000000000000000000000000000000000000000000000026
:401AC00000000000000000000000000000000000000000000000000000000000000000000000000000000000000000000000000000000000000000000000000000000000E6
:401B000000000000000000000000000000000000000000000000000000000000000000000000000000000000000000000000000000000000000000000000000000000000A5
:407FC000000000000000000000000000000000000000000002000000000000000002000000000000000000000000000000000000000000000000000000000000000000007D
:0200000490303A
:020000005F524D
:0200000490402A
:200000000000000000000000000000000000000000000000000000000000000000000000E0
:0200000490501A
:0C000000000204C81193110104D070E547
:0200000490600A
:0100000001FE
:00000001FF