:400000000010002011000000E9020000E902000010B500F023FE00F06FF9C04670B5164C23688022D20213432360182000F020FA2268124B13402360114A124B1A601022B1
:40004000114B1A601032114B1A6080221206104B1A60002525600F4A0F4B1A600F4A104B1A601049092000F0A9F9092000F090F90D4B1D6070BDC04600010B40FFFFFBFFFC
:400080000600008004010B40080202403002024008010B400E00008000000240A001008040000240810600000C020B4010B572B60122314B1A7000240FE0304862001319D4
:4000C00059000B00411889881A5AC31858880004104300F003F90134E4B2012CEDD927490C312748683000F0DFF8264A264B1A60EE221202254B1A60EE22254B1A60992368
:400100001B04244A1360244A1360C9210904234A1160234A1360234A1360FE22FF32224B1A600132214B1A6021490B78C33AFF3A934314221343DBB20B701E4A1178162341
:400140000B43DBB213701C4A1C4B1A6007221C4B1A601C4A1C4B1A601C4A1D4B1A601D4A1D4B1A6003221D4B1A601D4A1D4B1A60FFF754FF10BDC0461C700F407C10000025
:40018000FC11000033030000040001400C0001401000014000500F4010500F4018500F4020500F4030500F402000004000800F4001700F4000700F40B6E3240008000440CF
:4001C00000010440B69DD80008010440B69D2400080204408E1DDB000803044000040440A40D00000804044010B5064C2378002B07D1054B002B02D0044800E000BF01234E
:40020000237010BD480100200000000078100000084B10B5002B03D00749084800E000BF07480368002B00D110BD064B002BFBD09847F9E7000000004C010020781000009A
:40024000C80000200000000010B500F081FA012418E060000A22002100F0ACFB002809D1013000F035FC094800F0E0F80A2000F003FC02E00A2000F0FFFB0A2000F0D6F8A1
:400280000134E4B27E2CE4D910BDC046B80B000010B500F04DFA00F04FFA62B6002000F017FCFFF7D1FFFCE7F0B50025002711E0BB00C658F3B2FF22964308E06A008A180F
:4002C0001478A419527822700135013BDBB2002BF4D10137092FEBD9F0BDC04610B50A00002100F0BDFE10BD10B500F08DFE03680C2B00D1FEE7FEE770B50F4E0F4D13E0CD
:4003000029686B68AC68002202E001C901C30432A242FAD1E868002202E0002102C304328242FAD11035013E002EE9D100F072FEFFF7AEFFFEE7C0460100000078130000E9
:4003400010B500230AE0032B03D89A000C49505800E00C4899000C4A885001332F2BF2D9FFF7A4FE094B1B68002B02D10022074B1A608022D205116801230B43136010BDB8
:4003800000000000E902000000000020C00000201F2318401E3B8340014A13607047C04600E100E01F2318401E3B8340014A13607047C04680E100E001BE704770B504004F
:4003C0000D001F2802D90020FFF7F6FF1034A40080239B059C4664442068256070BDC04670B504000E00032902D90020FFF7E4FF1F2C02D90020FFF7DFFF03252540ED0003
:40040000063500F05BFCA408A400074B9C46644421680323AB4099430B003100A9401943216000F04FFC70BD00E400E010B5040006E0084B586800F037FC074B9C466444A9
:4004400080231B029C42F4D8024B9868604300F02BFC10BDCC0000200080FFFF10B5034B1B7B584300F020FC10BDC046CC000020F0B557464E46C0B483B0040000F01EFC3A
:400480000190E71E2D2F74D83F4B1B78DBB29C4208D83E4B1B78DBB29A463D4B1B78DBB2994631E03B4B1B78DBB29C4208D83A4B1B78DBB29A46394B1B78DBB2994623E006
:4004C000374B1B78DBB29C4208D8364B1B78DBB29A46354B1B78DBB2994615E0334B1B78DBB29C4208D8324B1B78DBB29A46314B1B78DBB2994607E02F4B1B78DBB29A46F2
:400500002E4B1B78DBB299462D4BDE5D2F2E09D92A2C07D919222B4B1A60052000F0C4FB192503E0274B1D683F231D40B54206D9234BDA5D234B1A60052000F0B5FB1F4BB3
:400540009C4664442378DBB21F4A13601F4B52461A601F4B4A461A600520FFF77FFFB5420AD2174BDA5D174B1A60052000F09CFB02E00020FFF720FF019800F0A3FB03B07F
:400580000CBC91469A46F0BDC0F1FF0FC1F1FF0FC2F1FF0FC3F1FF0FC4F1FF0FC5F1FF0FC6F1FF0FC7F1FF0FC8F1FF0FC9F1FF0FCAF1FF0FCBF1FF0FCCF1FF0FCDF1FF0F42
:4005C0008C1200002CFF0B4028FF0B401CFF0B4020FF0B40034B1868C0231B02184000D00120704700010B4010B500F067FB044A1368C02109020B43136000F063FB10BDE3
:4006000000010B4010B500F059FB08490A68084B1A408024E40122430A600A6813408022120213430B6000F04DFB10BD00010B40FF3FFFFF70B5050000F040FB0400FFF785
:40064000C9FF002803D0FFF7DDFF012100E0002108482840084A1568084B2B40184310601368012901D1FFF7BFFF200000F02AFB70BDC0460404040010020B40FBFBFBFFC6
:4006800010B5244B1B685B0715D5234B1B685B070ED5224BD969042001401F4C22688A432260DA698243DA611B69002B00D098470420FFF7BFFF174B1B685B0518D5164B9D
:4006C0001B685B0510D5154BD9698022D2001140114802688A430260D969114A0A40DA615B69002B00D098478020C000FFF7A2FF084B1B685B030CD5074B1B685B0304D501
:40070000064B9B69002B00D098478020C002FFF791FF10BD10020B40E000002064010020FFFBFFFF10B50A20FFF732FE10BDC04610B500F01DF810BD10B5044A136880214D
:4007400009060B431360FFF7EDFF10BD0000064010B5064B1B78002B04D1FFF7E9FF0122024B1A70FFF7E8FF10BDC0468401002010B51B4A11680C230B4313600024194BC3
:400780001C60194A194B1A60194B1A4A13601A4A14601A4A14601A4A13601A4B1C600A20FFF700FE03210A20FFF71AFE16490A20FFF704FE154B1C60154B1C60154B1C604A
:4007C000154B1C60154B1C60154B1C601022154B1A70154B1C80154B1C60154B1C6010BD7000064000000640770800806000064007010080000306400403064010030640B0
:400800000002064004020640CD0C0000C80E0640880E0640480F0640080F0640C80F0640880F06408C010020A0010020A40100209401002010B5144A13685B005B081360A8
:40084000002312490B6012490B601248046812492140016011490B6011490B601149124B19601249124B19601249134B19601349134B19601021134B197013688021090653
:400880000B43136010BDC04600000640680006406C00064060000640FF5CFFFF880F0640C80F0640F3070000800F0640ED0F0000C00F0640FF0F0000400F06401703000068
:4008C000000F06408C01002010B504000368002B09D00120FFF7C2FD2368013B2360002B03D0002003E0002001E08020000610BD10B5002839DBC023034208D00022284B93
:400900001A601032274B1A70002310243DE0C3070FD5244B1B781B072BD5234B1B685B0001D5002300E0012310211E4A117001242BE0C30520D4830722D4C30605D5102215
:40094000184B1A70002300241FE0164B1B781B0719D5144B1B78DB0701D5252200E02422104B1A70002300240FE00123802424060BE00123012408E001238024640004E0F0
:400980000023022401E000230024012B02D1FFF751FF02E0054A064B1A60200010BDC046680006408C0100206000064017030000000F064070B582B004000D001600244B35
:4009C0001B78102B40D10A20FFF7ECFC214B1B68DB0734D4FA239B005E43019600221E4B1A601E4A1E4B1A601E4A1F4B1A606400FF231C40002D03D12422154B1A7004E0B4
:400A00002522134B1A7001231C43184B1C600222174B1A60124B1C680823FF3320001840144B1B68C02423401843040001A8FFF74BFF2043EED0FFF75BFF040000E008247D
:400A40000A20FFF7A5FC00E00424200002B070BD8C01002064000640080F064017030000000F0640ED0F0000C00F06404002064068000640400F064010B582B0104B1B78CA
:400A80009B061AD5FA239B00584301900D4B1B689B0601D5182200E010220B4B1A600B4B18681223FF331840040001A8FFF70CFF2043F4D0FFF71CFF00E0042002B010BD56
:400AC0008C0100206400064068000640000F0640044A1368DBB201218B430840184310607047C046000004400047C04610B50C2863D88000404B1B589F464B06591ACB01CE
:400B00003E4A9446634401225CE04B06591ACB013B4A94466344042254E04B06591ACB01384A9446634402224CE04B06591ACB01354A94466344042244E04B06591ACB0110
:400B4000324A9446634401223CE04B06591ACB012F4A94466344012234E04B06591ACB012C4A9446634402222CE04B06591ACB01294A94466344022224E04B06591ACB0185
:400B8000264A9446634402221CE04B06591ACB01234A94466344042214E04B06591ACB01204A9446634401220CE04B06591ACB011D4A94466344042204E00020FFF7FCFB73
:400BC00002220023012A02D11878C0B200E00020022A03D11978587800020843042A09D11A785878000210439A7812041043DB781B06184310BDC046BC120000C07F000017
:400C0000C17F0000C57F0000C97F0000D07F0000D17F0000D67F0000D27F0000D47F0000D87F0000DC7F0000E07F000010B500210520FFF75BFFC4B201210520FFF756FFDC
:400C4000C0B2002C02D0002804D106E0002803D0012002E0032000E0022010BD70B5104B1B68DB0602D400220E4B1A600D4B1B68802B13D1FFF7DAFF04000022094B1A6055
:400C800001000220FFF732FF002807D0012C05D821000220FFF72AFFFFF726FF70BDC04600030B40C00000200230800804D0C0460138FDD1C046C046C0467047EFF310802D
:400CC00072B6704780F310887047C04610B5AD4B1B68002B00D09847AB4B1B68DB0702D50022AA4B1A60AA4B1B789B0628D5A94B1B68DB0507D5A84A1188C0239B000B43C0
:400D00001380012300E00023A24A1268D20706D5A14A118890239B000B4313800123002B0FD09B4A1278D20701D5012200E002229949088802430A800021954A117000E017
:400D40000023934A1278920600D414E1914A1268D20611D51022914B1A608D4B1B78DB0701D5012300E002238B4A11880B4313801022874B1A7004E1854A1278120720D578
:400D8000844A126892070AD50222844B1A60824A118888239B000B431380012311E07C4A1278D20703D52521794A117009E02421774A11707A4A1268002A02D01439794A20
:400DC0001160734A1278520700D4ABE0704A1278D20749D5744A1268120727D5734A1268734909680F240C40724909686418141B082C09D8002C16D16F4A11686F4B0B40E2
:400E00001360012308340EE008240CE0694A11686B48006841186B480068C0B20870116801311160013C002CF0D119E05E4A1268520715D55F4A116861480068411861485B
:400E40000068C0B208701168013111601168574A1268914203D204215B4A116000E001235A495B4A11605DE04A4A1268920726D502224A4B1A6057490B680D321A400968A1
:400E800080231B020B4000D001239B18524A1168CB1A13601268514B1A603F4A118884239B000B4313804E4B1A68802149020A431A6019684B4A0A401A60012332E04A4ACC
:400EC0001268D20612D424E0434A1168344A1268914211D2404A11684448006841180978C9B243480160116801311160394A12680F210A40082AE7D1374A1168284A126867
:400F0000914202D14021274A11603A493A4A116008E0354A1268520604D52F4B1A682F4B1A600123002B2CD0234A1168234B0B4013600023314A13601A4A1360304B1B78FB
:400F40009B070ED5124B1B78DB0701D5092300E00A23114A11880B43138060220C4B1A700FE0284B1B689B0601D5182200E01022154B1A6005E0064B1B78DB0601D4FFF7DC
:400F800059FC10BD880100208C0E0640880E06408C0100200C0F0640A0010020000F064098010020880F0640CC0F0640A801002008030640A401002060000640FFFEFFFF4F
:400FC0009C0100204003064068000640ED0F0000C00F064008020640B00100209401002004020640FFFFFEFF8C0F06409001002040020640F3070000800F0640C80F0640C9
:40100000AC01002064000640014B18687047C046440100200E4B70B500251E000D4CE41AA410A54204D0AB00F35898470135F8E700F090F9084B00251E00084CE41AA410C5
:40104000A54204D0AB00F35898470135F8E770BD6013000060130000601300006813000003008218934202D019700133FAE7704780140000790000000000000000300F40A5
:40108000000400400F400004810D820D830D8A048F0194019A07A701AE08B001B202B408B501B604BF10C020C105C5D1C602C807C9FFCAFFCBFFCDA0CF04D018D280D40559
:4010C000D804D904DA04DB04DF01E040E2C0E440E540E6C0E8C0EAC0ECC0EEC005100E200F0817801DB01E601F2027082F203F8045204F8957405E405F0977808580C040AF
:40110000C260C480CA40CE10D020D210D6D0E6010A040F0114011A0727012E08300132023408350136043F104020410545D14602480749FF4AFF4BFF4DA04F045018528048
:401140005405580459045A045B045F01604062C06440654066C068C06AC06CC06EC086048701920893019401A607B004B202B301B408B601BF04C020C105C5D1C720C82381
:40118000C9FFCAFFCBFFCDA0CF04D018D280D405D804D904DA04DB04DF01E040E2C0E440E540E6C0E8C0EAC0ECC0EEC00004051009020A100E200F0810201780180419400F
:4011C0001A901C021D301E601F20220427082F20300238043F8040044520482249014F895002574059415A085E405F097102778082408401C044C26CC484CA40CC01CE124A
:40120000D024D218D6DBE60204400B080E040F8069026D026F0870047B407C407F0480048710C080C2E0DA80DCE0DEE0E6C009010D01531057205B406A0483408728920406
:4012400093209502A501A708C230D4E0DA40E6D0800404080B4087409408C004C20801011001000003000F4027300F401A310F404E320F402E330F4013400F4011410F4026
:4012800001420F4006430F4002600F40030405060708090A0B0C0E0F101112131415161718191B1C1D1E1F2021222325262728292A2B2E2F3031323334350000BA0B00009E
:4012C000FA0A00000A0B00001A0B00002A0B00003A0B00004A0B00006A0B00005A0B00007A0B00008A0B00009A0B0000AA0B00004300000000000000000000000000000050
:4013000000000000000000000000000000000000000000000000000000000000000000000000000000000000000000000000000000000000000000000000000000000000AD
:401340000000000000000000000000000000000000000000F8B5C046F8BC08BC9E4670471102000041030000F8B5C046F8BC08BC9E467047E901000088130000C80000201D
:40138000800000007000000000000000010000000000E02EC05D00001800000000366E010404040000000000F41200001413000034130000000000000000000000000000D4
:4013C00000000000F01200000000000000000000000000000000000000000000000000000000000000000000000000000000000000000000000000000000000000000000EB
:4014000000000000E40000200000000000000000000000000000000000000000000000000000000000000000000000000000000000000000000000000000000000000000A8
:40144000000000000000000000000000000000000000000000000000000000000000000000000000000000000000000000000000000000000000000000000000000000006C
:40148000000000000000000000000000000000000000000000000000000000000000000000000000000000000000000000000000000000000000000000000000000000002C
:4014C00000000000000000000000000000000000000000000000000000000000000000000000000000000000000000000000000000000000000000000000000000000000EC
:4015000000000000000000000000000000000000000000000000000000000000000000000000000000000000000000000000000000000000000000000000000000000000AB
:407FC000000000000000000000000000000000000000000002000000000000000002000000000000000000000000000000000000000000000000000000000000000000007D
:0200000490303A
:020000000203F9
:0200000490402A
:200000000000000000000000000000000000000000000000000000000000000000000000E0
:0200000490501A
:0C000000000204C81193110104CE1396F5
:0200000490600A
:0100000001FE
:00000001FF