:400000000010002011000000150400001504000010B500F0ABFC00F005FAC04670B5164C23688022D20213432360182000F06EFA2268124B13402360114A124B1A601022EA
:40004000114B1A601032114B1A6080221206104B1A60002525600F4A0F4B1A600F4A104B1A601049092000F035FA092000F026FA0D4B1D6070BDC04600010B40FFFFFBFFD8
:400080000600008004010B40080202403002024008010B400E0000800000024077000080400002401D0700000C020B4010B572B60122314B1A7000240FE030486200131961
:4000C00059000B00411889881A5AC31858880004104300F099F90134E4B2012CEDD927490C312748683000F075F9264A264B1A60EE221202254B1A60EE22254B1A6099233B
:400100001B04244A1360244A1360C9210904234A1160234A1360234A1360FE22FF32224B1A600132214B1A6021490B78C33AFF3A934314221343DBB20B701E4A1178162341
:400140000B43DBB213701C4A1C4B1A6007221C4B1A601C4A1C4B1A601C4A1D4B1A601D4A1D4B1A6003221D4B1A601D4A1D4B1A60FFF754FF10BDC0461C700F40B0100000F1
:400180003012000033030000040001400C0001401000014000500F4010500F4018500F4020500F4030500F402000004000800F4001700F4000700F40B6E32400080004409A
:4001C00000010440B69DD80008010440B69D2400080204408E1DDB000803044000040440A40D00000804044010B5064C2378002B07D1054B002B02D0044800E000BF01234E
:40020000237010BD4801002000000000AC100000084B10B5002B03D00749084800E000BF07480368002B00D110BD064B002BFBD09847F9E7000000004C010020AC10000032
:40024000C80000200000000010B5002000F0C0FB002000F0C9FB00F041FD10BD10B5002000F0B6FB002000F0BFFB00F049FD10BD10B5002000F0ACFB002000F0B5FB00F0B8
:4002800051FD10BD10B5002000F0A2FB002000F0ABFB00F059FD10BD10B5002000F098FB002000F0A1FB00F011FD002801D000F0B5FC10BD10B5002000F08AFB002000F005
:4002C00093FB00F015FD002801D000F0C5FC10BD10B5002000F07CFB002000F085FB00F019FD002801D000F0ADFC10BD10B5002000F06EFB002000F077FB00F01DFD0028C4
:4003000001D000F095FC10BD10B500F065FA040000F06AFA012C10D100F0DEFB00F08AFD012000F049FB012000F04AFA012000F059FE012000F062FE16E0012810D100F071
:40034000CBFB00F077FD012000F036FB012000F037FA002000F046FE002000F04FFE03E000F058FB00F004FD10BDC04610B562B6104800F09DFC104800F0E2FB0F4800F00A
:400380003FFC0F4800F00CFC0E4800F087FD0E4800F0B6FD0D4800F0E3FD0D4800F014FE012000F015FB012000F01EFBFFF7ACFFFCE7C046490200005D0200007102000082
:4003C0008502000099020000B5020000D1020000ED020000F0B50025002711E0BB00C658F3B2FF22964308E06A008A181478A419527822700135013BDBB2002BF4D1013748
:40040000092FEBD9F0BDC04610B50A00002100F041FE10BD10B500F011FE03680C2B00D1FEE7FEE770B50F4E0F4D13E029686B68AC68002202E001C901C30432A242FAD160
:40044000E868002202E0002102C304328242FAD11035013E002EE9D100F0F6FDFFF786FFFEE7C04601000000AC13000010B500230AE0032B03D89A000C49505800E00C4862
:4004800099000C4A885001332F2BF2D9FFF70EFE094B1B68002B02D10022074B1A608022D205116801230B43136010BD000000001504000000000020C00000201F23184000
:4004C0001E3B8340014A13607047C04600E100E001BE704770B504000D001F2802D90020FFF7F6FF1034A40080239B059C4664442068256070BDC04610B5034B1B7B584392
:4005000000F08AFD10BDC046CC000020F0B557464E46C0B483B0040000F088FD0190E71E2D2F74D83F4B1B78DBB29C4208D83E4B1B78DBB29A463D4B1B78DBB2994631E0C8
:400540003B4B1B78DBB29C4208D83A4B1B78DBB29A46394B1B78DBB2994623E0374B1B78DBB29C4208D8364B1B78DBB29A46354B1B78DBB2994615E0334B1B78DBB29C423B
:4005800008D8324B1B78DBB29A46314B1B78DBB2994607E02F4B1B78DBB29A462E4B1B78DBB299462D4BDE5D2F2E09D92A2C07D919222B4B1A60052000F02EFD192503E0D6
:4005C000274B1D683F231D40B54206D9234BDA5D234B1A60052000F01FFD1F4B9C4664442378DBB21F4A13601F4B52461A601F4B4A461A600520FFF77FFFB5420AD2174BFB
:40060000DA5D174B1A60052000F006FD02E00020FFF75EFF019800F00DFD03B00CBC91469A46F0BDC0F1FF0FC1F1FF0FC2F1FF0FC3F1FF0FC4F1FF0FC5F1FF0FC6F1FF0F7A
:40064000C7F1FF0FC8F1FF0FC9F1FF0FCAF1FF0FCBF1FF0FCCF1FF0FCDF1FF0FC01200002CFF0B4028FF0B401CFF0B4020FF0B40034B1868C0231B02184000D001207047A3
:4006800000010B4010B500F0D1FC044A1368C02109020B43136000F0CDFC10BD00010B4010B500F0C3FC08490A68084B1A408024E40122430A600A68134080221202134317
:4006C0000B6000F0B7FC10BD00010B40FF3FFFFF70B5050000F0AAFC0400FFF7C9FF002803D0FFF7DDFF012100E0002108482840084A1568084B2B40184310601368012970
:4007000001D1FFF7BFFF200000F094FC70BDC0460404040010020B40FBFBFBFF10B5244B1B685B0715D5234B1B685B070ED5224BD969042001401F4C22688A432260DA6933
:400740008243DA611B69002B00D098470420FFF7BFFF174B1B685B0518D5164B1B685B0510D5154BD9698022D2001140114802688A430260D969114A0A40DA615B69002B7E
:4007800000D098478020C000FFF7A2FF084B1B685B030CD5074B1B685B0304D5064B9B69002B00D098478020C002FFF791FF10BD10020B40E000002064010020FFFBFFFFB4
:4007C000044A1368DBB201218B430840184310607047C04600010440024B1868800901231840704704020440024B1868C009012318407047040204400047C04610B50C2872
:4008000063D88000404B1B589F464B06591ACB013E4A9446634401225CE04B06591ACB013B4A94466344042254E04B06591ACB01384A9446634402224CE04B06591ACB01BF
:40084000354A94466344042244E04B06591ACB01324A9446634401223CE04B06591ACB012F4A94466344012234E04B06591ACB012C4A9446634402222CE04B06591ACB015A
:40088000294A94466344022224E04B06591ACB01264A9446634402221CE04B06591ACB01234A94466344042214E04B06591ACB01204A9446634401220CE04B06591ACB01C9
:4008C0001D4A94466344042204E00020FFF700FE02220023012A02D11878C0B200E00020022A03D11978587800020843042A09D11A785878000210439A7812041043DB7870
:400900001B06184310BDC046F0120000C07F0000C17F0000C57F0000C97F0000D07F0000D17F0000D67F0000D27F0000D47F0000D87F0000DC7F0000E07F000010B50021CC
:400940000520FFF75BFFC4B201210520FFF756FFC0B2002C02D0002804D106E0002803D0012002E0032000E0022010BD70B5104B1B68DB0602D400220E4B1A600D4B1B682D
:40098000802B13D1FFF7DAFF04000022094B1A6001000220FFF732FF002807D0012C05D821000220FFF72AFFFFF726FF70BDC04600030B40C000002004490A68D2B202234C
:4009C0009A43400018401043086070470001044004490A68D2B202239A43400018401043086070470002044004490A687F231A40C301D8B2104308607047C0460001044070
:400A0000034A117880235B420B43DBB21370704773000F40024A11787F230B401370704773000F40014B18707047C04603000F40014B18707047C04643000F40014B187031
:400A40007047C04623000F40014B18707047C04683000F40014B1878C0B2704763000F40014B1878C0B2704753000F4010B501E0FFF7F6FFFFF7EEFFC306F9D410BDC046A9
:400A800010B513490B783F22934309221343DBB20B70104C227801231343DBB223702020FFF7C0FF2020FFF7C3FF1020FFF7C6FF0020FFF7C9FF00F0B9FA227810231343C6
:400AC000DBB2237000F0B6FAFFF7D0FF10BDC04673000F4093000F4010B5064B1B78002B04D1FFF7CDFF0122024B1A70FFF788FF10BDC04684010020014B98647047C0469B
:400B00000000002010B5040000F090FA044A1168044B0B40A4051C43146000F08BFA10BD00E400E0FFFF3FFF0422014B1A60704700E100E00422014B1A60704780E100E0EB
:400B400010B50400FFF7F6FF2000FFF7D5FF0320FFF7D8FFFFF7E8FF10BDC046014B18657047C0460000002010B5040000F05EFA044A1368C0218B43A4011C43146000F0A0
:400B800059FA10BD04E400E01022014B1A60704700E100E01022014B1A60704780E100E010B50400FFF7F6FF2000FFF7D7FF0320FFF7DAFFFFF7E8FF10BDC046014BD86423
:400BC0007047C0460000002010B5040000F02EFA044A13689B009B08A4071C43146000F029FA10BD00E400E00822014B1A60704700E100E00822014B1A60704780E100E0BE
:400C000010B50400FFF7F6FF2000FFF7D7FF0320FFF7DAFFFFF7E8FF10BDC046034A1068082318401060C008C0B2704710000440034B1868C0B27F2290431860C0097047C9
:400C400010000440034A10684023184010608009C0B2704710000440034A10682023184010604009C0B2704710000440014B18647047C0460000002010B5040000F0D6F967
:400C8000044A1368C0218B43A4011C43146000F0D1F910BD00E400E00122014B1A60704700E100E00122014B1A60704780E100E010B50400FFF7F6FF2000FFF7D7FF0320F4
:400CC000FFF7DAFFFFF7E8FF10BDC046024B1868000901231840704704030440034A10681023184010600009C0B2704710030440024B186840090123184070470401044046
:400D0000034A10682023184010604009C0B2704710010440024B1868000901231840704704010440034A10681023184010600009C0B2704710010440024B1868400801234A
:400D40001840704704030440034A10680223184010604008C0B2704710030440034A117880235B420B43DBB21370704772000F40024A11787F230B401370704772000F40F6
:400D8000014B18707047C04602000F40014B18707047C04642000F40014B18707047C04622000F40014B18707047C04682000F40014B1878C0B2704762000F40014B187839
:400DC000C0B2704752000F4010B501E0FFF7F6FFFFF7EEFFC306F9D410BDC04610B513490B783F22934309221343DBB20B70104C227801231343DBB223702020FFF7C0FF63
:400E00002020FFF7C3FF1020FFF7C6FF0020FFF7C9FF00F00BF9227810231343DBB2237000F008F9FFF7D0FF10BDC04672000F4092000F4010B5064B1B78002B04D1FFF7F0
:400E4000CDFF0122024B1A70FFF788FF10BDC04685010020014B58657047C0460000002010B5040000F0E2F8044A1168044B0B40A4031C43146000F0DDF810BD04E400E008
:400E8000FF3FFFFF2022014B1A60704700E100E02022014B1A60704780E100E010B50400FFF7F6FF2000FFF7D5FF0320FFF7D8FFFFF7E8FF10BDC046014B98657047C04632
:400EC0000000002010B5040000F0B0F8044A1168044B0B40A4051C43146000F0ABF810BD04E400E0FFFF3FFF4022014B1A60704700E100E04022014B1A60704780E100E070
:400F000010B50400FFF7F6FF2000FFF7D5FF0320FFF7D8FFFFF7E8FF10BDC046014BD8657047C0460000002010B5040000F07EF8044A13689B009B08A4071C43146000F069
:400F400079F810BD04E400E08022014B1A60704700E100E08022014B1A60704780E100E010B50400FFF7F6FF2000FFF7D7FF0320FFF7DAFFFFF7E8FF10BDC046014B18661F
:400F80007047C0460000002010B5040000F04EF8044A1368C0218B43A4011C43146000F049F810BD08E400E080225200014B1A607047C04600E100E080225200014B1A60A9
:400FC0007047C04680E100E010B50400FFF7F4FF2000FFF7D3FF0320FFF7D6FFFFF7E4FF10BDC046044A1368DBB201218B430840184310607047C0460002044004490A68A4
:40100000D2B204239A438000184010430860704700020440000000000230800804D0C0460138FDD1C046C046C0467047EFF3108072B6704780F310887047C046014B18684F
:401040007047C046440100200E4B70B500251E000D4CE41AA410A54204D0AB00F35898470135F8E700F090F9084B00251E00084CE41AA410A54204D0AB00F3589847013502
:40108000F8E770BD9413000094130000941300009C13000003008218934202D019700133FAE7704780140000D80000000000000000300F40000400400F400004810D820D48
:4010C000830D8A048F0194019A07A701AE08B001B202B408B501B604BF10C020C105C5D1C602C807C9FFCAFFCBFFCDA0CF04D018D280D405D804D904DA04DB04DF01E04057
:40110000E2C0E440E540E6C0E8C0EAC0ECC0EEC005100E200F0817801DB01E601F2027082F203F8045204F8957405E405F0977808580C040C260C480CA40CE10D020D210C4
:40114000D6D0E6010A040F0114011A0727012E08300132023408350136043F104020410545D14602480749FF4AFF4BFF4DA04F04501852805405580459045A045B045F01F9
:40118000604062C06440654066C068C06AC06CC06EC086048701920893019401A607B004B202B301B408B601BF04C020C105C5D1C720C823C9FFCAFFCBFFCDA0CF04D018ED
:4011C000D280D405D804D904DA04DB04DF01E040E2C0E440E540E6C0E8C0EAC0ECC0EEC00004051009020A100E200F0810201780180419401A901C021D301E601F2022045A
:4012000027082F20300238043F8040044520482249014F895002574059415A085E405F097102778082408401C044C26CC484CA40CC01CE12D024D218D6DBE60204400B0833
:401240000E040F8069026D026F0870047B407C407F0480048710C080C2E0DA80DCE0DEE0E6C009010D01531057205B406A0483408728920493209502A501A708C230D4E04F
:40128000DA40E6D0800404080B4087409408C004C20801011001000003000F4027300F401A310F404E320F402E330F4013400F4011410F4001420F4006430F4002600F4050
:4012C000030405060708090A0B0C0E0F101112131415161718191B1C1D1E1F2021222325262728292A2B2E2F3031323334350000CA0800000A0800001A0800002A080000C6
:401300003A0800004A0800005A0800007A0800006A0800008A0800009A080000AA080000BA08000043000000000000000000000000000000000000000000000000000000D8
:40134000000000000000000000000000000000000000000000000000000000000000000000000000000000000000000000000000000000000000000000000000000000006D
:401380000000000000000000F8B5C046F8BC08BC9E467047110200006D040000F8B5C046F8BC08BC9E467047E9010000C0130000C8000020800000004000000000000000B8
:4013C00000000000010000000000E02EC05D00001800000000366E0104040400000000002813000048130000681300000000000000000000000000000000000024130000B0
:40140000000000000000000000000000000000000000000000000000000000000000000000000000000000000000000000000000000000000000000000000000E4000020A8
:40144000000000000000000000000000000000000000000000000000000000000000000000000000000000000000000000000000000000000000000000000000000000006C
:40148000000000000000000000000000000000000000000000000000000000000000000000000000000000000000000000000000000000000000000000000000000000002C
:4014C00000000000000000000000000000000000000000000000000000000000000000000000000000000000000000000000000000000000000000000000000000000000EC
:4015000000000000000000000000000000000000000000000000000000000000000000000000000000000000000000000000000000000000000000000000000000000000AB
:407FC000000000000000000000000000000000000000000002000000000000000002000000000000000000000000000000000000000000000000000000000000000000007D
:0200000490303A
:02000000C861D5
:0200000490402A
:200000000000000000000000000000000000000000000000000000000000000000000000E0
:0200000490501A
:0C000000000204C81193110104CED9F4D1
:0200000490600A
:0100000001FE
:00000001FF