:4000000000100020110000000D0300000D03000010B500F0B7FE00F081F9C04670B51A4C23688022D20213432360182000F032FA2268164B13402360154A164B1A6020228F
:40004000154B1A601032154B1A601023144A1360144A136080221206134B1A6000252560124A134B1A60134A134B1A60134A144B1A601449092000F0B3F9092000F09AF90C
:40008000114B1D6070BDC04600010B40FFFFFBFF0600008004010B40080202400C020240200202402402024008010B4001000080000002400E0000804000024010000080FB
:4000C00080000240A50600000C020B4010B572B600240FE02E486200131959000B00411889881A5AC31858880004104300F008F90134E4B2012CEDD9254801000C311C303C
:4001000000F0E4F899231B04224A1360E0218905214A1160EE210902204A1160EE21204A1160204A1360802212061F490A601F490B601F490B601F490A601F4A13601F4AC9
:40014000117806230B43DBB21370A0221C4B1A601C4A1D4B1A60802212021C4B1A6020221B4B1A601B4A1C4B1A60C0221B4B1A601B4A1C4B1A60D82212011B4B1A6003226B
:400180001A4B1A6021321A4B1A60FFF747FF10BDA411000000000140080001400C0001401000014000500F4004500F4010500F4020500F4028500F4030500F4000700F4043
:4001C00000000440B61D4300080004400C00044018000440B60D1B000801044000020440B60DD8000802044008030440000404400804044010B5064C2378002B07D1054B67
:40020000002B02D0044800E000BF0123237010BD4801002000000000A0110000084B10B5002B03D00749084800E000BF07480368002B00D110BD064B002BFBD09847F9E75A
:40024000000000004C010020A0110000C80000200000000010B584B06B46DC1D1A23237000F088FA022301222100282000F0A0FB0F4B1B889B07FBD50D4B1B88DB07FBD53B
:400280000123062202A9282000F00EFC002802D100F08EFC09E000F097FCC043C0B200F087FCFA20400000F0D3F804B010BDC046A001002010B562B6012000F079FCFA2062
:4002C000800000F0C5F8FFF7C5FFF5E7F0B50025002711E0BB00C658F3B2FF22964308E06A008A181478A419527822700135013BDBB2002BF4D10137022FEBD9F0BDC04679
:4003000010B50A00002100F03FFF10BD10B500F00FFF03680C2B00D1FEE7FEE770B50F4E0F4D13E029686B68AC68002202E001C901C30432A242FAD1E868002202E000219D
:4003400002C304328242FAD11035013E002EE9D100F0F4FEFFF7AEFFFEE7C046010000005812000010B500230AE0032B03D89A000C49505800E00C4899000C4A885001330B
:400380002F2BF2D9FFF7A2FE094B1B68002B02D10022074B1A608022D205116801230B43136010BD000000000D03000000000020C00000201F2318401E3B8340014A136097
:4003C0007047C04600E100E01F2318401E3B8340014A13607047C04680E100E001BE704770B504000D001F2802D90020FFF7F6FF1034A40080239B059C4664442068256072
:4004000070BDC04670B504000E00032902D90020FFF7E4FF1F2C02D90020FFF7DFFF03252540ED00063500F0DDFCA408A400074B9C46644421680323AB4099430B003100DC
:40044000A9401943216000F0D1FC70BD00E400E010B5040006E0084B586800F0B9FC074B9C46644480231B029C42F4D8024B9868604300F0ADFC10BDCC0000200080FFFF9B
:4004800010B5034B1B7B584300F0A2FC10BDC046CC000020F0B557464E46C0B483B0040000F0A0FC0190E71E2D2F74D83F4B1B78DBB29C4208D83E4B1B78DBB29A463D4BE7
:4004C0001B78DBB2994631E03B4B1B78DBB29C4208D83A4B1B78DBB29A46394B1B78DBB2994623E0374B1B78DBB29C4208D8364B1B78DBB29A46354B1B78DBB2994615E028
:40050000334B1B78DBB29C4208D8324B1B78DBB29A46314B1B78DBB2994607E02F4B1B78DBB29A462E4B1B78DBB299462D4BDE5D2F2E09D92A2C07D919222B4B1A60052016
:4005400000F046FC192503E0274B1D683F231D40B54206D9234BDA5D234B1A60052000F037FC1F4B9C4664442378DBB21F4A13601F4B52461A601F4B4A461A600520FFF7C4
:400580007FFFB5420AD2174BDA5D174B1A60052000F01EFC02E00020FFF720FF019800F025FC03B00CBC91469A46F0BDC0F1FF0FC1F1FF0FC2F1FF0FC3F1FF0FC4F1FF0FE1
:4005C000C5F1FF0FC6F1FF0FC7F1FF0FC8F1FF0FC9F1FF0FCAF1FF0FCBF1FF0FCCF1FF0FCDF1FF0FCC1100002CFF0B4028FF0B401CFF0B4020FF0B40034B1868C0231B0290
:40060000184000D00120704700010B4010B500F0E9FB044A1368C02109020B43136000F0E5FB10BD00010B4010B500F0DBFB08490A68084B1A408024E40122430A600A68B1
:4006400013408022120213430B6000F0CFFB10BD00010B40FF3FFFFF70B5050000F0C2FB0400FFF7C9FF002803D0FFF7DDFF012100E0002108482840084A1568084B2B40D3
:40068000184310601368012901D1FFF7BFFF200000F0ACFB70BDC0460404040010020B40FBFBFBFF10B5244B1B685B0715D5234B1B685B070ED5224BD969042001401F4C49
:4006C00022688A432260DA698243DA611B69002B00D098470420FFF7BFFF174B1B685B0518D5164B1B685B0510D5154BD9698022D2001140114802688A430260D969114A57
:400700000A40DA615B69002B00D098478020C000FFF7A2FF084B1B685B030CD5074B1B685B0304D5064B9B69002B00D098478020C002FFF791FF10BD10020B40E00000203D
:4007400064010020FFFBFFFF10B50A20FFF732FE10BDC04610B500F01DF810BD10B5044A1368802109060B431360FFF7EDFF10BD0000064010B5064B1B78002B04D1FFF7EA
:40078000E9FF0122024B1A70FFF7E8FF10BDC0468401002010B51B4A11680C230B4313600024194B1C60194A194B1A60194B1A4A13601A4A14601A4A14601A4A13601A4B03
:4007C0001C600A20FFF700FE03210A20FFF71AFE16490A20FFF704FE154B1C60154B1C60154B1C60154B1C60154B1C60154B1C601022154B1A70154B1C80154B1C60154B06
:400800001C6010BD70000640000006407708008060000640070100800003064004030640100306400002064004020640F50D0000C80E0640880E0640480F0640080F0640CF
:40084000C80F0640880F06408C010020A0010020A40100209401002010B5144A13685B005B081360002312490B6012490B601248046812492140016011490B6011490B60AB
:400880001149124B19601249124B19601249134B19601349134B19601021134B19701368802109060B43136010BDC04600000640680006406C00064060000640FF5CFFFFF6
:4008C000880F0640C80F0640F3070000800F0640ED0F0000C00F0640FF0F0000400F064017030000000F06408C01002070B52B4B1B6820251D402A4C03E00120FFF7C0FD72
:40090000013C00F069F9002801D1002CF5D1002C43D0002000F068F9224A13680F218B431360214A13685B005B081360002D18D0002000F059F90A20FFF7A2FD012000F0D6
:4009400053F90A20FFF79CFD154C03E00120FFF797FD013C00F054F9002803D1002CF5D100E00F4C002C08D0002000F03DF90A20FFF786FD01220D4B1A600B4A136880218D
:4009800009060B43136007490B680F229343013A13430B60012000F027F970BD64000640204E0000100001400000064068000640F0B583B001900C0017001D00002917D02D
:4009C0002A4B1B78102B08D10A20FFF7FDFC284B1B68DB070ED508260FE0244B1B78602B0AD1244A138808218B431380002604E0042602E0002600E00426002E2FD1282231
:400A00001A4B1A7000231C4A13601C4A13601C4B1F601C4B1C60EAB21B4B1A70019B5C00FF231C40134A138802218B4313804023164A13601649174A11601421FF31164A7F
:400A40001160164A1360EB0704D5FFF74FFF144B1C6004E0124B1C600222124B1A600A20FFF7A8FC300003B0F0BDC0468C01002064000640A0010020B00100209401002098
:400A80009801002090010020AC010020800F064017030000000F0640080F0640880F06404002064068000640F0B583B001900C0017001D00002917D02F4B1B78102B08D171
:400AC0000A20FFF781FC2D4B1B68DB070ED508260FE0294B1B78602B0AD1294A138808218B431380002604E0042602E0002600E00426002E39D129221F4B1A700022214B2C
:400B00001A60214A1760214B1C60EBB220490B70019B5C00FF231C400120044318490B8883430B801B491C4B19601421FF311B4B19601368072B03D80422194B1A6008E0D1
:400B4000184A1368802149000B4313600822144B1A60EB0704D5FFF7C9FE134B1C6004E0114B1C600222114B1A600A20FFF722FC300003B0F0BDC0468C01002064000640A7
:400B8000A0010020A4010020A80100209C010020AC01002017030000000F0640080F0640C80F0640600006404002064068000640044A1368DBB201218B430840184310603E
:400BC0007047C04600000440024B1B68012018407047C04604000440024B1868400801231840704704040440044A1368DBB201218B430840184310607047C04600040440B4
:400C0000024B1B68012018407047C046040404400047C04610B50C2863D88000404B1B589F464B06591ACB013E4A9446634401225CE04B06591ACB013B4A944663440422CA
:400C400054E04B06591ACB01384A9446634402224CE04B06591ACB01354A94466344042244E04B06591ACB01324A9446634401223CE04B06591ACB012F4A9446634401220A
:400C800034E04B06591ACB012C4A9446634402222CE04B06591ACB01294A94466344022224E04B06591ACB01264A9446634402221CE04B06591ACB01234A94466344042278
:400CC00014E04B06591ACB01204A9446634401220CE04B06591ACB011D4A94466344042204E00020FFF77AFB02220023012A02D11878C0B200E00020022A03D119785878C1
:400D000000020843042A09D11A785878000210439A7812041043DB781B06184310BDC046FC110000C07F0000C17F0000C57F0000C97F0000D07F0000D17F0000D67F00007E
:400D4000D27F0000D47F0000D87F0000DC7F0000E07F000010B500210520FFF75BFFC4B201210520FFF756FFC0B2002C02D0002804D106E0002803D0012002E0032000E007
:400D8000022010BD70B5104B1B68DB0602D400220E4B1A600D4B1B68802B13D1FFF7DAFF04000022094B1A6001000220FFF732FF002807D0012C05D821000220FFF72AFFB3
:400DC000FFF726FF70BDC04600030B40C00000200230800804D0C0460138FDD1C046C046C0467047EFF3108072B6704780F310887047C04610B5AD4B1B68002B00D09847E0
:400E0000AB4B1B68DB0702D50022AA4B1A60AA4B1B789B0628D5A94B1B68DB0507D5A84A1188C0239B000B431380012300E00023A24A1268D20706D5A14A118890239B0099
:400E40000B4313800123002B0FD09B4A1278D20701D5012200E002229949088802430A800021954A117000E00023934A1278920600D414E1914A1268D20611D51022914B70
:400E80001A608D4B1B78DB0701D5012300E002238B4A11880B4313801022874B1A7004E1854A1278120720D5844A126892070AD50222844B1A60824A118888239B000B431D
:400EC0001380012311E07C4A1278D20703D52521794A117009E02421774A11707A4A1268002A02D01439794A1160734A1278520700D4ABE0704A1278D20749D5744A126822
:400F0000120727D5734A1268734909680F240C40724909686418141B082C09D8002C16D16F4A11686F4B0B401360012308340EE008240CE0694A11686B48006841186B4857
:400F40000068C0B20870116801311160013C002CF0D119E05E4A1268520715D55F4A116861480068411861480068C0B208701168013111601168574A1268914203D2042177
:400F80005B4A116000E001235A495B4A11605DE04A4A1268920726D502224A4B1A6057490B680D321A40096880231B020B4000D001239B18524A1168CB1A13601268514BFA
:400FC0001A603F4A118884239B000B4313804E4B1A68802149020A431A6019684B4A0A401A60012332E04A4A1268D20612D424E0434A1168344A1268914211D2404A1168CD
:401000004448006841180978C9B243480160116801311160394A12680F210A40082AE7D1374A1168284A1268914202D14021274A11603A493A4A116008E0354A126852067E
:4010400004D52F4B1A682F4B1A600123002B2CD0234A1168234B0B4013600023314A13601A4A1360304B1B789B070ED5124B1B78DB0701D5092300E00A23114A11880B43AC
:40108000138060220C4B1A700FE0284B1B689B0601D5182200E01022154B1A6005E0064B1B78DB0601D4FFF7D7FB10BD880100208C0E0640880E06408C0100200C0F064031
:4010C000A0010020000F064098010020880F0640CC0F0640A801002008030640A401002060000640FFFEFFFF9C0100204003064068000640ED0F0000C00F0640080206404E
:40110000B00100209401002004020640FFFFFEFF8C0F06409001002040020640F3070000800F0640C80F0640AC01002064000640014B18687047C046440100200E4B70B5F9
:4011400000251E000D4CE41AA410A54204D0AB00F35898470135F8E700F06CF8084B00251E00084CE41AA410A54204D0AB00F35898470135F8E770BD401200004012000016
:40118000401200004812000003008218934202D019700133FAE77047001300009E0000000000000000300F40000400400F4000046010D80218109410C6080201110100002A
:4011C00002420F4003430F4002600F40030405060708090A0B0C0E0F101112131415161718191B1C1D1E1F2021222325262728292A2B2E2F3031323334350000E20C000038
:40120000220C0000320C0000420C0000520C0000620C0000720C0000920C0000820C0000A20C0000B20C0000C20C0000D20C000043000000F8B5C046F8BC08BC9E4670475D
:401240001D02000065030000F8B5C046F8BC08BC9E467047F501000068120000C8000020800000007000000000000000010000000000E02EC05D00001800000000366E01F0
:4012800004040400000000000000000000000000000000000000000000000000000000000000000030120000000000000000000000000000000000000000000000000000E0
:4012C000000000000000000000000000000000000000000000000000000000000000000000000000E4000020000000000000000000000000000000000000000000000000EA
:4013000000000000000000000000000000000000000000000000000000000000000000000000000000000000000000000000000000000000000000000000000000000000AD
:40134000000000000000000000000000000000000000000000000000000000000000000000000000000000000000000000000000000000000000000000000000000000006D
:40138000000000000000000000000000000000000000000000000000000000000000000000000000000000000000000000000000000000000000000000000000000000002D
:4013C00000000000000000000000000000000000000000000000000000000000000000000000000000000000000000000000000000000000000000000000000000000000ED
:407FC000000000000000000000000000000000000000000002000000000000000002000000000000000000000000000000000000000000000000000000000000000000007D
:0200000490303A
:020000009AEE76
:0200000490402A
:200000000000000000000000000000000000000000000000000000000000000000000000E0
:0200000490501A
:0C000000000204C81193110104CDAC8172
:0200000490600A
:0100000001FE
:00000001FF